{"abi":[{"type":"constructor","inputs":[{"name":"subscriptionId","type":"uint256","internalType":"uint256"}],"stateMutability":"nonpayable"},{"type":"function","name":"MIN_BET","inputs":[],"outputs":[{"name":"","type":"uint256","internalType":"uint256"}],"stateMutability":"view"},{"type":"function","name":"acceptOwnership","inputs":[],"outputs":[],"stateMutability":"nonpayable"},{"type":"function","name":"callbackGasLimit","inputs":[],"outputs":[{"name":"","type":"uint32","internalType":"uint32"}],"stateMutability":"view"},{"type":"function","name":"flipCoin","inputs":[{"name":"choice","type":"bool","internalType":"bool"}],"outputs":[{"name":"","type":"uint256","internalType":"uint256"}],"stateMutability":"payable"},{"type":"function","name":"flipRequests","inputs":[{"name":"","type":"uint256","internalType":"uint256"}],"outputs":[{"name":"player","type":"address","internalType":"address"},{"name":"choice","type":"bool","internalType":"bool"},{"name":"betAmount","type":"uint256","internalType":"uint256"},{"name":"fulfilled","type":"bool","internalType":"bool"},{"name":"result","type":"bool","internalType":"bool"}],"stateMutability":"view"},{"type":"function","name":"getFlipStatus","inputs":[{"name":"requestId","type":"uint256","internalType":"uint256"}],"outputs":[{"name":"","type":"tuple","internalType":"struct Counter.FlipRequest","components":[{"name":"player","type":"address","internalType":"address"},{"name":"choice","type":"bool","internalType":"bool"},{"name":"betAmount","type":"uint256","internalType":"uint256"},{"name":"fulfilled","type":"bool","internalType":"bool"},{"name":"result","type":"bool","internalType":"bool"}]}],"stateMutability":"view"},{"type":"function","name":"getPlayerStats","inputs":[{"name":"player","type":"address","internalType":"address"}],"outputs":[{"name":"wins","type":"uint256","internalType":"uint256"}],"stateMutability":"view"},{"type":"function","name":"keyHash","inputs":[],"outputs":[{"name":"","type":"bytes32","internalType":"bytes32"}],"stateMutability":"view"},{"type":"function","name":"numWords","inputs":[],"outputs":[{"name":"","type":"uint32","internalType":"uint32"}],"stateMutability":"view"},{"type":"function","name":"owner","inputs":[],"outputs":[{"name":"","type":"address","internalType":"address"}],"stateMutability":"view"},{"type":"function","name":"playerWins","inputs":[{"name":"","type":"address","internalType":"address"}],"outputs":[{"name":"","type":"uint256","internalType":"uint256"}],"stateMutability":"view"},{"type":"function","name":"rawFulfillRandomWords","inputs":[{"name":"requestId","type":"uint256","internalType":"uint256"},{"name":"randomWords","type":"uint256[]","internalType":"uint256[]"}],"outputs":[],"stateMutability":"nonpayable"},{"type":"function","name":"requestConfirmations","inputs":[],"outputs":[{"name":"","type":"uint16","internalType":"uint16"}],"stateMutability":"view"},{"type":"function","name":"s_subscriptionId","inputs":[],"outputs":[{"name":"","type":"uint256","internalType":"uint256"}],"stateMutability":"view"},{"type":"function","name":"s_vrfCoordinator","inputs":[],"outputs":[{"name":"","type":"address","internalType":"contract IVRFCoordinatorV2Plus"}],"stateMutability":"view"},{"type":"function","name":"setCoordinator","inputs":[{"name":"_vrfCoordinator","type":"address","internalType":"address"}],"outputs":[],"stateMutability":"nonpayable"},{"type":"function","name":"transferOwnership","inputs":[{"name":"to","type":"address","internalType":"address"}],"outputs":[],"stateMutability":"nonpayable"},{"type":"function","name":"vrfCoordinator","inputs":[],"outputs":[{"name":"","type":"address","internalType":"address"}],"stateMutability":"view"},{"type":"function","name":"withdraw","inputs":[],"outputs":[],"stateMutability":"nonpayable"},{"type":"event","name":"CoinFlipRequested","inputs":[{"name":"requestId","type":"uint256","indexed":false,"internalType":"uint256"}],"anonymous":false},{"type":"event","name":"CoinFlipResult","inputs":[{"name":"requestId","type":"uint256","indexed":false,"internalType":"uint256"},{"name":"didWin","type":"bool","indexed":false,"internalType":"bool"},{"name":"randomValue","type":"uint256","indexed":false,"internalType":"uint256"}],"anonymous":false},{"type":"event","name":"CoordinatorSet","inputs":[{"name":"vrfCoordinator","type":"address","indexed":false,"internalType":"address"}],"anonymous":false},{"type":"event","name":"OwnershipTransferRequested","inputs":[{"name":"from","type":"address","indexed":true,"internalType":"address"},{"name":"to","type":"address","indexed":true,"internalType":"address"}],"anonymous":false},{"type":"event","name":"OwnershipTransferred","inputs":[{"name":"from","type":"address","indexed":true,"internalType":"address"},{"name":"to","type":"address","indexed":true,"internalType":"address"}],"anonymous":false},{"type":"error","name":"OnlyCoordinatorCanFulfill","inputs":[{"name":"have","type":"address","internalType":"address"},{"name":"want","type":"address","internalType":"address"}]},{"type":"error","name":"OnlyOwnerOrCoordinator","inputs":[{"name":"have","type":"address","internalType":"address"},{"name":"owner","type":"address","internalType":"address"},{"name":"coordinator","type":"address","internalType":"address"}]},{"type":"error","name":"ZeroAddress","inputs":[]}],"bytecode":{"object":"0x6080604052739ddfaca8183c41ad55329bdeed9f6a8d53168b1b600460006101000a81548173ffffffffffffffffffffffffffffffffffffffff021916908373ffffffffffffffffffffffffffffffffffffffff1602179055507f787d74caea10b2b357790d5b5247c2f63d1d91572a9846f780606e4d953677ae60001b600555620186a0600660006101000a81548163ffffffff021916908363ffffffff1602179055506003600660046101000a81548161ffff021916908361ffff16021790555060016006806101000a81548163ffffffff021916908363ffffffff160217905550348015620000f057600080fd5b50604051620025713803806200257183398181016040528101906200011691906200045e565b600460009054906101000a900473ffffffffffffffffffffffffffffffffffffffff16338060008073ffffffffffffffffffffffffffffffffffffffff168273ffffffffffffffffffffffffffffffffffffffff1603620001ae576040517f08c379a0000000000000000000000000000000000000000000000000000000008152600401620001a590620004f1565b60405180910390fd5b816000806101000a81548173ffffffffffffffffffffffffffffffffffffffff021916908373ffffffffffffffffffffffffffffffffffffffff160217905550600073ffffffffffffffffffffffffffffffffffffffff168173ffffffffffffffffffffffffffffffffffffffff161462000235576200023481620002ef60201b60201c565b5b505050600073ffffffffffffffffffffffffffffffffffffffff168173ffffffffffffffffffffffffffffffffffffffff16036200029f576040517fd92e233d00000000000000000000000000000000000000000000000000000000815260040160405180910390fd5b80600260006101000a81548173ffffffffffffffffffffffffffffffffffffffff021916908373ffffffffffffffffffffffffffffffffffffffff16021790555050806003819055505062000585565b3373ffffffffffffffffffffffffffffffffffffffff168173ffffffffffffffffffffffffffffffffffffffff160362000360576040517f08c379a0000000000000000000000000000000000000000000000000000000008152600401620003579062000563565b60405180910390fd5b80600160006101000a81548173ffffffffffffffffffffffffffffffffffffffff021916908373ffffffffffffffffffffffffffffffffffffffff1602179055508073ffffffffffffffffffffffffffffffffffffffff1660008054906101000a900473ffffffffffffffffffffffffffffffffffffffff1673ffffffffffffffffffffffffffffffffffffffff167fed8889f560326eb138920d842192f0eb3dd22b4f139c87a2c57538e05bae127860405160405180910390a350565b600080fd5b6000819050919050565b620004388162000423565b81146200044457600080fd5b50565b60008151905062000458816200042d565b92915050565b6000602082840312156200047757620004766200041e565b5b6000620004878482850162000447565b91505092915050565b600082825260208201905092915050565b7f43616e6e6f7420736574206f776e657220746f207a65726f0000000000000000600082015250565b6000620004d960188362000490565b9150620004e682620004a1565b602082019050919050565b600060208201905081810360008301526200050c81620004ca565b9050919050565b7f43616e6e6f74207472616e7366657220746f2073656c66000000000000000000600082015250565b60006200054b60178362000490565b9150620005588262000513565b602082019050919050565b600060208201905081810360008301526200057e816200053c565b9050919050565b611fdc80620005956000396000f3fe6080604052600436106101145760003560e01c80638ac00021116100a0578063a3e56fa811610064578063a3e56fa814610370578063b0fb162f1461039b578063e8704012146103c6578063f2fde38b14610403578063fa6a26921461042c57610114565b80638ac00021146102895780638b31fb89146102b45780638da5cb5b146102f15780638ea981171461031c5780639eccacf61461034557610114565b806361728f39116100e757806361728f39146101c15780636540742f146101ec57806379ba5097146102175780637b8ff38f1461022e5780637ccfd7fc1461025e57610114565b80631fe543e31461011957806324f74697146101425780633ccfd60b1461016d5780634fd66eae14610184575b600080fd5b34801561012557600080fd5b50610140600480360381019061013b91906114f2565b61046d565b005b34801561014e57600080fd5b50610157610533565b6040516101649190611571565b60405180910390f35b34801561017957600080fd5b50610182610549565b005b34801561019057600080fd5b506101ab60048036038101906101a691906115ea565b610602565b6040516101b89190611626565b60405180910390f35b3480156101cd57600080fd5b506101d661064b565b6040516101e3919061165a565b60405180910390f35b3480156101f857600080fd5b50610201610651565b60405161020e9190611626565b60405180910390f35b34801561022357600080fd5b5061022c61065c565b005b610248600480360381019061024391906116ad565b6107f1565b6040516102559190611626565b60405180910390f35b34801561026a57600080fd5b50610273610ab6565b6040516102809190611571565b60405180910390f35b34801561029557600080fd5b5061029e610aca565b6040516102ab9190611626565b60405180910390f35b3480156102c057600080fd5b506102db60048036038101906102d691906115ea565b610ad0565b6040516102e89190611626565b60405180910390f35b3480156102fd57600080fd5b50610306610ae8565b60405161031391906116e9565b60405180910390f35b34801561032857600080fd5b50610343600480360381019061033e91906115ea565b610b11565b005b34801561035157600080fd5b5061035a610cf2565b6040516103679190611763565b60405180910390f35b34801561037c57600080fd5b50610385610d18565b60405161039291906116e9565b60405180910390f35b3480156103a757600080fd5b506103b0610d3e565b6040516103bd919061179b565b60405180910390f35b3480156103d257600080fd5b506103ed60048036038101906103e891906117b6565b610d52565b6040516103fa9190611878565b60405180910390f35b34801561040f57600080fd5b5061042a600480360381019061042591906115ea565b610e30565b005b34801561043857600080fd5b50610453600480360381019061044e91906117b6565b610e44565b6040516104649594939291906118a2565b60405180910390f35b600260009054906101000a900473ffffffffffffffffffffffffffffffffffffffff1673ffffffffffffffffffffffffffffffffffffffff163373ffffffffffffffffffffffffffffffffffffffff16146105235733600260009054906101000a900473ffffffffffffffffffffffffffffffffffffffff166040517f1cf993f400000000000000000000000000000000000000000000000000000000815260040161051a9291906118f5565b60405180910390fd5b61052e838383610ec1565b505050565b600660009054906101000a900463ffffffff1681565b60035473ffffffffffffffffffffffffffffffffffffffff163373ffffffffffffffffffffffffffffffffffffffff16146105b9576040517f08c379a00000000000000000000000000000000000000000000000000000000081526004016105b09061197b565b60405180910390fd5b3373ffffffffffffffffffffffffffffffffffffffff166108fc479081150290604051600060405180830381858888f193505050501580156105ff573d6000803e3d6000fd5b50565b6000600860008373ffffffffffffffffffffffffffffffffffffffff1673ffffffffffffffffffffffffffffffffffffffff168152602001908152602001600020549050919050565b60055481565b66038d7ea4c6800081565b600160009054906101000a900473ffffffffffffffffffffffffffffffffffffffff1673ffffffffffffffffffffffffffffffffffffffff163373ffffffffffffffffffffffffffffffffffffffff16146106ec576040517f08c379a00000000000000000000000000000000000000000000000000000000081526004016106e3906119e7565b60405180910390fd5b60008060009054906101000a900473ffffffffffffffffffffffffffffffffffffffff169050336000806101000a81548173ffffffffffffffffffffffffffffffffffffffff021916908373ffffffffffffffffffffffffffffffffffffffff1602179055506000600160006101000a81548173ffffffffffffffffffffffffffffffffffffffff021916908373ffffffffffffffffffffffffffffffffffffffff1602179055503373ffffffffffffffffffffffffffffffffffffffff168173ffffffffffffffffffffffffffffffffffffffff167f8be0079c531659141344cd1fd0a4f28419497f9722a3daafe3b4186f6b6457e060405160405180910390a350565b600066038d7ea4c6800034101561083d576040517f08c379a000000000000000000000000000000000000000000000000000000000815260040161083490611a53565b60405180910390fd5b6000600260009054906101000a900473ffffffffffffffffffffffffffffffffffffffff1673ffffffffffffffffffffffffffffffffffffffff16639b1c385e6040518060c0016040528060055481526020016003548152602001600660049054906101000a900461ffff1661ffff168152602001600660009054906101000a900463ffffffff1663ffffffff16815260200160068054906101000a900463ffffffff1663ffffffff1681526020016109066040518060200160405280600015158152506111ae565b8152506040518263ffffffff1660e01b81526004016109259190611bb9565b6020604051808303816000875af1158015610944573d6000803e3d6000fd5b505050506040513d601f19601f820116820180604052508101906109689190611bf0565b90506040518060a001604052803373ffffffffffffffffffffffffffffffffffffffff1681526020018415158152602001348152602001600015158152602001600015158152506007600083815260200190815260200160002060008201518160000160006101000a81548173ffffffffffffffffffffffffffffffffffffffff021916908373ffffffffffffffffffffffffffffffffffffffff16021790555060208201518160000160146101000a81548160ff0219169083151502179055506040820151816001015560608201518160020160006101000a81548160ff02191690831515021790555060808201518160020160016101000a81548160ff0219169083151502179055509050507f04535af255da44df14397e4fd3159fa5b09bfe4335c30d63e2c53bc04127e45881604051610aa59190611626565b60405180910390a180915050919050565b60068054906101000a900463ffffffff1681565b60035481565b60086020528060005260406000206000915090505481565b60008060009054906101000a900473ffffffffffffffffffffffffffffffffffffffff16905090565b610b19610ae8565b73ffffffffffffffffffffffffffffffffffffffff163373ffffffffffffffffffffffffffffffffffffffff1614158015610ba25750600260009054906101000a900473ffffffffffffffffffffffffffffffffffffffff1673ffffffffffffffffffffffffffffffffffffffff163373ffffffffffffffffffffffffffffffffffffffff1614155b15610c115733610bb0610ae8565b600260009054906101000a900473ffffffffffffffffffffffffffffffffffffffff166040517f061db9c1000000000000000000000000000000000000000000000000000000008152600401610c0893929190611c1d565b60405180910390fd5b600073ffffffffffffffffffffffffffffffffffffffff168173ffffffffffffffffffffffffffffffffffffffff1603610c77576040517fd92e233d00000000000000000000000000000000000000000000000000000000815260040160405180910390fd5b80600260006101000a81548173ffffffffffffffffffffffffffffffffffffffff021916908373ffffffffffffffffffffffffffffffffffffffff1602179055507fd1a6a14209a385a964d036e404cb5cfb71f4000cdb03c9366292430787261be681604051610ce791906116e9565b60405180910390a150565b600260009054906101000a900473ffffffffffffffffffffffffffffffffffffffff1681565b600460009054906101000a900473ffffffffffffffffffffffffffffffffffffffff1681565b600660049054906101000a900461ffff1681565b610d5a611402565b600760008381526020019081526020016000206040518060a00160405290816000820160009054906101000a900473ffffffffffffffffffffffffffffffffffffffff1673ffffffffffffffffffffffffffffffffffffffff1673ffffffffffffffffffffffffffffffffffffffff1681526020016000820160149054906101000a900460ff16151515158152602001600182015481526020016002820160009054906101000a900460ff161515151581526020016002820160019054906101000a900460ff1615151515815250509050919050565b610e38611246565b610e41816112d6565b50565b60076020528060005260406000206000915090508060000160009054906101000a900473ffffffffffffffffffffffffffffffffffffffff16908060000160149054906101000a900460ff16908060010154908060020160009054906101000a900460ff16908060020160019054906101000a900460ff16905085565b600073ffffffffffffffffffffffffffffffffffffffff166007600085815260200190815260200160002060000160009054906101000a900473ffffffffffffffffffffffffffffffffffffffff1673ffffffffffffffffffffffffffffffffffffffff1603610f66576040517f08c379a0000000000000000000000000000000000000000000000000000000008152600401610f5d90611ca0565b60405180910390fd5b6007600084815260200190815260200160002060020160009054906101000a900460ff1615610fca576040517f08c379a0000000000000000000000000000000000000000000000000000000008152600401610fc190611d0c565b60405180910390fd5b6000600760008581526020019081526020016000209050600083836000818110610ff757610ff6611d2c565b5b9050602002013590506000806002836110109190611d8a565b14905060008115158460000160149054906101000a900460ff161515149050808460020160016101000a81548160ff02191690831515021790555060018460020160006101000a81548160ff021916908315150217905550801561116a576000600285600101546110819190611dea565b905080600860008760000160009054906101000a900473ffffffffffffffffffffffffffffffffffffffff1673ffffffffffffffffffffffffffffffffffffffff1673ffffffffffffffffffffffffffffffffffffffff16815260200190815260200160002060008282546110f69190611e2c565b925050819055508460000160009054906101000a900473ffffffffffffffffffffffffffffffffffffffff1673ffffffffffffffffffffffffffffffffffffffff166108fc829081150290604051600060405180830381858888f19350505050158015611167573d6000803e3d6000fd5b50505b7f75f4bd8d167528c285cd74370462ec2a38004d221b1972c9a211b26af34778e487828560405161119d93929190611e60565b60405180910390a150505050505050565b60607f92fd13387c7fe7befbc38d303d6468778fb9731bc4583f17d92989c6fcfdeaaa826040516024016111e29190611eb3565b604051602081830303815290604052907bffffffffffffffffffffffffffffffffffffffffffffffffffffffff19166020820180517bffffffffffffffffffffffffffffffffffffffffffffffffffffffff83818316178352505050509050919050565b60008054906101000a900473ffffffffffffffffffffffffffffffffffffffff1673ffffffffffffffffffffffffffffffffffffffff163373ffffffffffffffffffffffffffffffffffffffff16146112d4576040517f08c379a00000000000000000000000000000000000000000000000000000000081526004016112cb90611f1a565b60405180910390fd5b565b3373ffffffffffffffffffffffffffffffffffffffff168173ffffffffffffffffffffffffffffffffffffffff1603611344576040517f08c379a000000000000000000000000000000000000000000000000000000000815260040161133b90611f86565b60405180910390fd5b80600160006101000a81548173ffffffffffffffffffffffffffffffffffffffff021916908373ffffffffffffffffffffffffffffffffffffffff1602179055508073ffffffffffffffffffffffffffffffffffffffff1660008054906101000a900473ffffffffffffffffffffffffffffffffffffffff1673ffffffffffffffffffffffffffffffffffffffff167fed8889f560326eb138920d842192f0eb3dd22b4f139c87a2c57538e05bae127860405160405180910390a350565b6040518060a00160405280600073ffffffffffffffffffffffffffffffffffffffff168152602001600015158152602001600081526020016000151581526020016000151581525090565b600080fd5b600080fd5b6000819050919050565b61146a81611457565b811461147557600080fd5b50565b60008135905061148781611461565b92915050565b600080fd5b600080fd5b600080fd5b60008083601f8401126114b2576114b161148d565b5b8235905067ffffffffffffffff8111156114cf576114ce611492565b5b6020830191508360208202830111156114eb576114ea611497565b5b9250929050565b60008060006040848603121561150b5761150a61144d565b5b600061151986828701611478565b935050602084013567ffffffffffffffff81111561153a57611539611452565b5b6115468682870161149c565b92509250509250925092565b600063ffffffff82169050919050565b61156b81611552565b82525050565b60006020820190506115866000830184611562565b92915050565b600073ffffffffffffffffffffffffffffffffffffffff82169050919050565b60006115b78261158c565b9050919050565b6115c7816115ac565b81146115d257600080fd5b50565b6000813590506115e4816115be565b92915050565b600060208284031215611600576115ff61144d565b5b600061160e848285016115d5565b91505092915050565b61162081611457565b82525050565b600060208201905061163b6000830184611617565b92915050565b6000819050919050565b61165481611641565b82525050565b600060208201905061166f600083018461164b565b92915050565b60008115159050919050565b61168a81611675565b811461169557600080fd5b50565b6000813590506116a781611681565b92915050565b6000602082840312156116c3576116c261144d565b5b60006116d184828501611698565b91505092915050565b6116e3816115ac565b82525050565b60006020820190506116fe60008301846116da565b92915050565b6000819050919050565b600061172961172461171f8461158c565b611704565b61158c565b9050919050565b600061173b8261170e565b9050919050565b600061174d82611730565b9050919050565b61175d81611742565b82525050565b60006020820190506117786000830184611754565b92915050565b600061ffff82169050919050565b6117958161177e565b82525050565b60006020820190506117b0600083018461178c565b92915050565b6000602082840312156117cc576117cb61144d565b5b60006117da84828501611478565b91505092915050565b6117ec816115ac565b82525050565b6117fb81611675565b82525050565b61180a81611457565b82525050565b60a08201600082015161182660008501826117e3565b50602082015161183960208501826117f2565b50604082015161184c6040850182611801565b50606082015161185f60608501826117f2565b50608082015161187260808501826117f2565b50505050565b600060a08201905061188d6000830184611810565b92915050565b61189c81611675565b82525050565b600060a0820190506118b760008301886116da565b6118c46020830187611893565b6118d16040830186611617565b6118de6060830185611893565b6118eb6080830184611893565b9695505050505050565b600060408201905061190a60008301856116da565b61191760208301846116da565b9392505050565b600082825260208201905092915050565b7f4e6f7420617574686f72697a6564000000000000000000000000000000000000600082015250565b6000611965600e8361191e565b91506119708261192f565b602082019050919050565b6000602082019050818103600083015261199481611958565b9050919050565b7f4d7573742062652070726f706f736564206f776e657200000000000000000000600082015250565b60006119d160168361191e565b91506119dc8261199b565b602082019050919050565b60006020820190508181036000830152611a00816119c4565b9050919050565b7f42657420746f6f20736d616c6c00000000000000000000000000000000000000600082015250565b6000611a3d600d8361191e565b9150611a4882611a07565b602082019050919050565b60006020820190508181036000830152611a6c81611a30565b9050919050565b611a7c81611641565b82525050565b611a8b8161177e565b82525050565b611a9a81611552565b82525050565b600081519050919050565b600082825260208201905092915050565b60005b83811015611ada578082015181840152602081019050611abf565b60008484015250505050565b6000601f19601f8301169050919050565b6000611b0282611aa0565b611b0c8185611aab565b9350611b1c818560208601611abc565b611b2581611ae6565b840191505092915050565b600060c083016000830151611b486000860182611a73565b506020830151611b5b6020860182611801565b506040830151611b6e6040860182611a82565b506060830151611b816060860182611a91565b506080830151611b946080860182611a91565b5060a083015184820360a0860152611bac8282611af7565b9150508091505092915050565b60006020820190508181036000830152611bd38184611b30565b905092915050565b600081519050611bea81611461565b92915050565b600060208284031215611c0657611c0561144d565b5b6000611c1484828501611bdb565b91505092915050565b6000606082019050611c3260008301866116da565b611c3f60208301856116da565b611c4c60408301846116da565b949350505050565b7f52657175657374206e6f7420666f756e64000000000000000000000000000000600082015250565b6000611c8a60118361191e565b9150611c9582611c54565b602082019050919050565b60006020820190508181036000830152611cb981611c7d565b9050919050565b7f5265717565737420616c72656164792066756c66696c6c656400000000000000600082015250565b6000611cf660198361191e565b9150611d0182611cc0565b602082019050919050565b60006020820190508181036000830152611d2581611ce9565b9050919050565b7f4e487b7100000000000000000000000000000000000000000000000000000000600052603260045260246000fd5b7f4e487b7100000000000000000000000000000000000000000000000000000000600052601260045260246000fd5b6000611d9582611457565b9150611da083611457565b925082611db057611daf611d5b565b5b828206905092915050565b7f4e487b7100000000000000000000000000000000000000000000000000000000600052601160045260246000fd5b6000611df582611457565b9150611e0083611457565b9250828202611e0e81611457565b91508282048414831517611e2557611e24611dbb565b5b5092915050565b6000611e3782611457565b9150611e4283611457565b9250828201905080821115611e5a57611e59611dbb565b5b92915050565b6000606082019050611e756000830186611617565b611e826020830185611893565b611e8f6040830184611617565b949350505050565b602082016000820151611ead60008501826117f2565b50505050565b6000602082019050611ec86000830184611e97565b92915050565b7f4f6e6c792063616c6c61626c65206279206f776e657200000000000000000000600082015250565b6000611f0460168361191e565b9150611f0f82611ece565b602082019050919050565b60006020820190508181036000830152611f3381611ef7565b9050919050565b7f43616e6e6f74207472616e7366657220746f2073656c66000000000000000000600082015250565b6000611f7060178361191e565b9150611f7b82611f3a565b602082019050919050565b60006020820190508181036000830152611f9f81611f63565b905091905056fea264697066735822122078a2a647f0a5299a3c0a1668647af4e80a93da3c6451cd368b6c01e4dc83fe9064736f6c63430008130033","linkReferences":{}},"methodIdentifiers":{"MIN_BET()":"6540742f","acceptOwnership()":"79ba5097","callbackGasLimit()":"24f74697","flipCoin(bool)":"7b8ff38f","flipRequests(uint256)":"fa6a2692","getFlipStatus(uint256)":"e8704012","getPlayerStats(address)":"4fd66eae","keyHash()":"61728f39","numWords()":"7ccfd7fc","owner()":"8da5cb5b","playerWins(address)":"8b31fb89","rawFulfillRandomWords(uint256,uint256[])":"1fe543e3","requestConfirmations()":"b0fb162f","s_subscriptionId()":"8ac00021","s_vrfCoordinator()":"9eccacf6","setCoordinator(address)":"8ea98117","transferOwnership(address)":"f2fde38b","vrfCoordinator()":"a3e56fa8","withdraw()":"3ccfd60b"},"id":27}